{
  "_format": "hh-sol-artifact-1",
  "contractName": "NFTtickets",
  "sourceName": "contracts/NFTtickets.sol",
  "abi": [
    {
      "inputs": [],
      "stateMutability": "nonpayable",
      "type": "constructor"
    },
    {
      "anonymous": false,
      "inputs": [
        {
          "indexed": true,
          "internalType": "address",
          "name": "owner",
          "type": "address"
        },
        {
          "indexed": true,
          "internalType": "address",
          "name": "approved",
          "type": "address"
        },
        {
          "indexed": true,
          "internalType": "uint256",
          "name": "tokenId",
          "type": "uint256"
        }
      ],
      "name": "Approval",
      "type": "event"
    },
    {
      "anonymous": false,
      "inputs": [
        {
          "indexed": true,
          "internalType": "address",
          "name": "owner",
          "type": "address"
        },
        {
          "indexed": true,
          "internalType": "address",
          "name": "operator",
          "type": "address"
        },
        {
          "indexed": false,
          "internalType": "bool",
          "name": "approved",
          "type": "bool"
        }
      ],
      "name": "ApprovalForAll",
      "type": "event"
    },
    {
      "anonymous": false,
      "inputs": [
        {
          "indexed": true,
          "internalType": "address",
          "name": "from",
          "type": "address"
        },
        {
          "indexed": true,
          "internalType": "address",
          "name": "to",
          "type": "address"
        },
        {
          "indexed": true,
          "internalType": "uint256",
          "name": "tokenId",
          "type": "uint256"
        }
      ],
      "name": "Transfer",
      "type": "event"
    },
    {
      "inputs": [
        {
          "internalType": "address",
          "name": "to",
          "type": "address"
        },
        {
          "internalType": "uint256",
          "name": "tokenId",
          "type": "uint256"
        }
      ],
      "name": "approve",
      "outputs": [],
      "stateMutability": "nonpayable",
      "type": "function"
    },
    {
      "inputs": [
        {
          "internalType": "address",
          "name": "owner",
          "type": "address"
        }
      ],
      "name": "balanceOf",
      "outputs": [
        {
          "internalType": "uint256",
          "name": "",
          "type": "uint256"
        }
      ],
      "stateMutability": "view",
      "type": "function"
    },
    {
      "inputs": [],
      "name": "closeSale",
      "outputs": [],
      "stateMutability": "nonpayable",
      "type": "function"
    },
    {
      "inputs": [
        {
          "internalType": "address",
          "name": "addr",
          "type": "address"
        }
      ],
      "name": "confirmOwnership",
      "outputs": [
        {
          "internalType": "bool",
          "name": "",
          "type": "bool"
        }
      ],
      "stateMutability": "view",
      "type": "function"
    },
    {
      "inputs": [
        {
          "internalType": "uint256",
          "name": "tokenId",
          "type": "uint256"
        }
      ],
      "name": "getApproved",
      "outputs": [
        {
          "internalType": "address",
          "name": "",
          "type": "address"
        }
      ],
      "stateMutability": "view",
      "type": "function"
    },
    {
      "inputs": [
        {
          "internalType": "address",
          "name": "owner",
          "type": "address"
        },
        {
          "internalType": "address",
          "name": "operator",
          "type": "address"
        }
      ],
      "name": "isApprovedForAll",
      "outputs": [
        {
          "internalType": "bool",
          "name": "",
          "type": "bool"
        }
      ],
      "stateMutability": "view",
      "type": "function"
    },
    {
      "inputs": [],
      "name": "mint",
      "outputs": [],
      "stateMutability": "payable",
      "type": "function"
    },
    {
      "inputs": [],
      "name": "name",
      "outputs": [
        {
          "internalType": "string",
          "name": "",
          "type": "string"
        }
      ],
      "stateMutability": "view",
      "type": "function"
    },
    {
      "inputs": [],
      "name": "numOfTickets",
      "outputs": [
        {
          "internalType": "uint256",
          "name": "",
          "type": "uint256"
        }
      ],
      "stateMutability": "view",
      "type": "function"
    },
    {
      "inputs": [],
      "name": "numOfTicketsCounts",
      "outputs": [
        {
          "internalType": "uint256",
          "name": "",
          "type": "uint256"
        }
      ],
      "stateMutability": "view",
      "type": "function"
    },
    {
      "inputs": [
        {
          "internalType": "uint256",
          "name": "tokenId",
          "type": "uint256"
        }
      ],
      "name": "ownerOf",
      "outputs": [
        {
          "internalType": "address",
          "name": "",
          "type": "address"
        }
      ],
      "stateMutability": "view",
      "type": "function"
    },
    {
      "inputs": [
        {
          "internalType": "address",
          "name": "from",
          "type": "address"
        },
        {
          "internalType": "address",
          "name": "to",
          "type": "address"
        },
        {
          "internalType": "uint256",
          "name": "tokenId",
          "type": "uint256"
        }
      ],
      "name": "safeTransferFrom",
      "outputs": [],
      "stateMutability": "nonpayable",
      "type": "function"
    },
    {
      "inputs": [
        {
          "internalType": "address",
          "name": "from",
          "type": "address"
        },
        {
          "internalType": "address",
          "name": "to",
          "type": "address"
        },
        {
          "internalType": "uint256",
          "name": "tokenId",
          "type": "uint256"
        },
        {
          "internalType": "bytes",
          "name": "data",
          "type": "bytes"
        }
      ],
      "name": "safeTransferFrom",
      "outputs": [],
      "stateMutability": "nonpayable",
      "type": "function"
    },
    {
      "inputs": [],
      "name": "sale",
      "outputs": [],
      "stateMutability": "nonpayable",
      "type": "function"
    },
    {
      "inputs": [],
      "name": "saleStatus",
      "outputs": [
        {
          "internalType": "bool",
          "name": "",
          "type": "bool"
        }
      ],
      "stateMutability": "view",
      "type": "function"
    },
    {
      "inputs": [
        {
          "internalType": "address",
          "name": "operator",
          "type": "address"
        },
        {
          "internalType": "bool",
          "name": "approved",
          "type": "bool"
        }
      ],
      "name": "setApprovalForAll",
      "outputs": [],
      "stateMutability": "nonpayable",
      "type": "function"
    },
    {
      "inputs": [
        {
          "internalType": "bytes4",
          "name": "interfaceId",
          "type": "bytes4"
        }
      ],
      "name": "supportsInterface",
      "outputs": [
        {
          "internalType": "bool",
          "name": "",
          "type": "bool"
        }
      ],
      "stateMutability": "view",
      "type": "function"
    },
    {
      "inputs": [],
      "name": "symbol",
      "outputs": [
        {
          "internalType": "string",
          "name": "",
          "type": "string"
        }
      ],
      "stateMutability": "view",
      "type": "function"
    },
    {
      "inputs": [
        {
          "internalType": "address",
          "name": "",
          "type": "address"
        },
        {
          "internalType": "uint256",
          "name": "",
          "type": "uint256"
        }
      ],
      "name": "tokenID",
      "outputs": [
        {
          "internalType": "uint256",
          "name": "",
          "type": "uint256"
        }
      ],
      "stateMutability": "view",
      "type": "function"
    },
    {
      "inputs": [
        {
          "internalType": "uint256",
          "name": "tokenId",
          "type": "uint256"
        }
      ],
      "name": "tokenURI",
      "outputs": [
        {
          "internalType": "string",
          "name": "",
          "type": "string"
        }
      ],
      "stateMutability": "view",
      "type": "function"
    },
    {
      "inputs": [],
      "name": "totalTickets",
      "outputs": [
        {
          "internalType": "uint256",
          "name": "",
          "type": "uint256"
        }
      ],
      "stateMutability": "view",
      "type": "function"
    },
    {
      "inputs": [],
      "name": "totalTicketsCounts",
      "outputs": [
        {
          "internalType": "uint256",
          "name": "",
          "type": "uint256"
        }
      ],
      "stateMutability": "view",
      "type": "function"
    },
    {
      "inputs": [
        {
          "internalType": "address",
          "name": "from",
          "type": "address"
        },
        {
          "internalType": "address",
          "name": "to",
          "type": "address"
        },
        {
          "internalType": "uint256",
          "name": "tokenId",
          "type": "uint256"
        }
      ],
      "name": "transferFrom",
      "outputs": [],
      "stateMutability": "nonpayable",
      "type": "function"
    }
  ],
  "bytecode": "0x60806040526009805460ff191690556064600a819055600b553480156200002557600080fd5b506040805180820182526009815268139195151a58dad95d60ba1b6020808301918252835180850190945260048452631391951560e21b908401528151919291620000739160009162000152565b5080516200008990600190602084019062000152565b505050620000a36007620000d560201b62000b2f1760201c565b620000cf620000be6007620000de60201b62000b381760201c565b620000e260201b62000b3c1760201c565b62000235565b80546001019055565b5490565b6200012e81604051602401620000fa91815260200190565b60408051601f198184030181529190526020810180516001600160e01b0390811663f82c50f160e01b179091526200013116565b50565b80516a636f6e736f6c652e6c6f67602083016000808483855afa5050505050565b8280546200016090620001f8565b90600052602060002090601f016020900481019282620001845760008555620001cf565b82601f106200019f57805160ff1916838001178555620001cf565b82800160010185558215620001cf579182015b82811115620001cf578251825591602001919060010190620001b2565b50620001dd929150620001e1565b5090565b5b80821115620001dd5760008155600101620001e2565b600181811c908216806200020d57607f821691505b602082108114156200022f57634e487b7160e01b600052602260045260246000fd5b50919050565b61220680620002456000396000f3fe6080604052600436106101405760003560e01c806370a08231116100b6578063c87b56dd1161006f578063c87b56dd14610374578063dbf6aca014610394578063dd11247e146103b4578063e985e9c5146103ca578063ee55efee14610413578063f9020e331461042f57600080fd5b806370a08231146102b157806380f2abe3146102d15780638a1854951461030957806395d89b411461031f578063a22cb46514610334578063b88d4fde1461035457600080fd5b8063229c9ea511610108578063229c9ea5146101fe57806323b872dd1461021d57806342842e0e1461023d578063478323921461025d5780636352211e146102725780636ad1fe021461029257600080fd5b806301ffc9a71461014557806306fdde031461017a578063081812fc1461019c578063095ea7b3146101d45780631249c58b146101f6575b600080fd5b34801561015157600080fd5b50610165610160366004611c72565b610449565b60405190151581526020015b60405180910390f35b34801561018657600080fd5b5061018f61049b565b6040516101719190611f42565b3480156101a857600080fd5b506101bc6101b7366004611caa565b61052d565b6040516001600160a01b039091168152602001610171565b3480156101e057600080fd5b506101f46101ef366004611c49565b610554565b005b6101f461066f565b34801561020a57600080fd5b50600b545b604051908152602001610171565b34801561022957600080fd5b506101f4610238366004611aff565b610865565b34801561024957600080fd5b506101f4610258366004611aff565b610896565b34801561026957600080fd5b50600a5461020f565b34801561027e57600080fd5b506101bc61028d366004611caa565b6108b1565b34801561029e57600080fd5b506101f46009805460ff19166001179055565b3480156102bd57600080fd5b5061020f6102cc366004611ab3565b610911565b3480156102dd57600080fd5b506101656102ec366004611ab3565b6001600160a01b0316600090815260086020526040902054151590565b34801561031557600080fd5b5061020f600b5481565b34801561032b57600080fd5b5061018f610997565b34801561034057600080fd5b506101f461034f366004611c0f565b6109a6565b34801561036057600080fd5b506101f461036f366004611b3a565b6109b5565b34801561038057600080fd5b5061018f61038f366004611caa565b6109ed565b3480156103a057600080fd5b5061020f6103af366004611c49565b610afe565b3480156103c057600080fd5b5061020f600a5481565b3480156103d657600080fd5b506101656103e5366004611acd565b6001600160a01b03918216600090815260056020908152604080832093909416825291909152205460ff1690565b34801561041f57600080fd5b506101f46009805460ff19169055565b34801561043b57600080fd5b506009546101659060ff1681565b60006001600160e01b031982166380ac58cd60e01b148061047a57506001600160e01b03198216635b5e139f60e01b145b8061049557506301ffc9a760e01b6001600160e01b03198316145b92915050565b6060600080546104aa90612083565b80601f01602080910402602001604051908101604052809291908181526020018280546104d690612083565b80156105235780601f106104f857610100808354040283529160200191610523565b820191906000526020600020905b81548152906001019060200180831161050657829003601f168201915b5050505050905090565b600061053882610b84565b506000908152600460205260409020546001600160a01b031690565b600061055f826108b1565b9050806001600160a01b0316836001600160a01b031614156105d25760405162461bcd60e51b815260206004820152602160248201527f4552433732313a20617070726f76616c20746f2063757272656e74206f776e656044820152603960f91b60648201526084015b60405180910390fd5b336001600160a01b03821614806105ee57506105ee81336103e5565b6106605760405162461bcd60e51b815260206004820152603e60248201527f4552433732313a20617070726f76652063616c6c6572206973206e6f7420746f60448201527f6b656e206f776e6572206e6f7220617070726f76656420666f7220616c6c000060648201526084016105c9565b61066a8383610be3565b505050565b6000600b54116106b75760405162461bcd60e51b81526020600482015260136024820152724e6f7420656e6f756768207469636b6574732160681b60448201526064016105c9565b60095460ff166107095760405162461bcd60e51b815260206004820152601860248201527f5469636b65747320617265206e6f74206f6e2073616c6521000000000000000060448201526064016105c9565b6107116119d7565b6040518060800160405280604b8152602001612146604b9139815260075461073d90610c51565b610c51565b6020828101918252604080518082018252600d81526c1e17ba32bc3a1f1e17b9bb339f60991b81840152818501819052845193519151600094610784949093929101611d1d565b60408051601f1981840301815291905290508060006107a282610d6b565b90506107ad8161115a565b60006107e46107be61073860075490565b836040516020016107d0929190611d60565b604051602081830303815290604052610d6b565b90506000816040516020016107f99190611eca565b60405160208183030381529060405290506108138161115a565b6108253361082060075490565b61119d565b61083761083160075490565b826111b7565b610845600780546001019055565b6001600b60008282546108589190612040565b9091555050505050505050565b61086f3382611251565b61088b5760405162461bcd60e51b81526004016105c990611fa7565b61066a8383836112cf565b61066a838383604051806020016040528060008152506109b5565b6000818152600260205260408120546001600160a01b0316806104955760405162461bcd60e51b8152602060048201526018602482015277115490cdcc8c4e881a5b9d985b1a59081d1bdad95b88125160421b60448201526064016105c9565b60006001600160a01b03821661097b5760405162461bcd60e51b815260206004820152602960248201527f4552433732313a2061646472657373207a65726f206973206e6f7420612076616044820152683634b21037bbb732b960b91b60648201526084016105c9565b506001600160a01b031660009081526003602052604090205490565b6060600180546104aa90612083565b6109b133838361146b565b5050565b6109bf3383611251565b6109db5760405162461bcd60e51b81526004016105c990611fa7565b6109e78484848461153a565b50505050565b60606109f882610b84565b60008281526006602052604081208054610a1190612083565b80601f0160208091040260200160405190810160405280929190818152602001828054610a3d90612083565b8015610a8a5780601f10610a5f57610100808354040283529160200191610a8a565b820191906000526020600020905b815481529060010190602001808311610a6d57829003601f168201915b505050505090506000610aa860408051602081019091526000815290565b9050805160001415610abb575092915050565b815115610aed578082604051602001610ad5929190611cee565b60405160208183030381529060405292505050919050565b610af68461156d565b949350505050565b60086020528160005260406000208181548110610b1a57600080fd5b90600052602060002001600091509150505481565b80546001019055565b5490565b610b8181604051602401610b5291815260200190565b60408051601f198184030181529190526020810180516001600160e01b031663f82c50f160e01b1790526115e1565b50565b6000818152600260205260409020546001600160a01b0316610b815760405162461bcd60e51b8152602060048201526018602482015277115490cdcc8c4e881a5b9d985b1a59081d1bdad95b88125160421b60448201526064016105c9565b600081815260046020526040902080546001600160a01b0319166001600160a01b0384169081179091558190610c18826108b1565b6001600160a01b03167f8c5be1e5ebec7d5bd14f71427d1e84f3dd0314c0f7b2291e5b200ac8c7c3b92560405160405180910390a45050565b606081610c755750506040805180820190915260018152600360fc1b602082015290565b8160005b8115610c9f5780610c89816120be565b9150610c989050600a8361200d565b9150610c79565b60008167ffffffffffffffff811115610cc857634e487b7160e01b600052604160045260246000fd5b6040519080825280601f01601f191660200182016040528015610cf2576020820181803683370190505b5090505b8415610af657610d07600183612040565b9150610d14600a866120d9565b610d1f906030611ff5565b60f81b818381518110610d4257634e487b7160e01b600052603260045260246000fd5b60200101906001600160f81b031916908160001a905350610d64600a8661200d565b9450610cf6565b60606000829050600060038251610d8291906120d9565b905060006003610d928382612040565b610d9c91906120d9565b600384516002610dac9190611ff5565b610db6919061200d565b610dc1906004612021565b610dcb9190612040565b905060008167ffffffffffffffff811115610df657634e487b7160e01b600052604160045260246000fd5b6040519080825280601f01601f191660200182016040528015610e20576020820181803683370190505b5090506000805b8551610e34836003611ff5565b11610fe057610ecd868381518110610e5c57634e487b7160e01b600052603260045260246000fd5b016020015160f81c87610e70856001611ff5565b81518110610e8e57634e487b7160e01b600052603260045260246000fd5b016020015160f81c88610ea2866002611ff5565b81518110610ec057634e487b7160e01b600052603260045260246000fd5b016020015160f81c611602565b868581518110610eed57634e487b7160e01b600052603260045260246000fd5b0160200187610efd876001611ff5565b81518110610f1b57634e487b7160e01b600052603260045260246000fd5b0160200188610f2b886002611ff5565b81518110610f4957634e487b7160e01b600052603260045260246000fd5b0160200189610f59896003611ff5565b81518110610f7757634e487b7160e01b600052603260045260246000fd5b6001600160f81b0319861660001a9101602001536001600160f81b0319851660001a90536001600160f81b0319851660001a90536001600160f81b0319851660001a905350505050600481610fcc9190611ff5565b9050610fd9600383611ff5565b9150610e27565b841561114e57600086868851610ff69190612040565b8151811061101457634e487b7160e01b600052603260045260246000fd5b016020015160f81c9050600060028714156110615787600189516110389190612040565b8151811061105657634e487b7160e01b600052603260045260246000fd5b016020015160f81c90505b6000806000806110798660ff168660ff166000611602565b9350935093509350838988815181106110a257634e487b7160e01b600052603260045260246000fd5b60200101906001600160f81b031916908160001a90535082896110c6896001611ff5565b815181106110e457634e487b7160e01b600052603260045260246000fd5b60200101906001600160f81b031916908160001a9053508a60021415611147578189611111896002611ff5565b8151811061112f57634e487b7160e01b600052603260045260246000fd5b60200101906001600160f81b031916908160001a9053505b5050505050505b50909695505050505050565b610b818160405160240161116e9190611f42565b60408051601f198184030181529190526020810180516001600160e01b031663104c13eb60e21b1790526115e1565b6109b1828260405180602001604052806000815250611755565b6000828152600260205260409020546001600160a01b03166112325760405162461bcd60e51b815260206004820152602e60248201527f45524337323155524953746f726167653a2055524920736574206f66206e6f6e60448201526d32bc34b9ba32b73a103a37b5b2b760911b60648201526084016105c9565b6000828152600660209081526040909120825161066a928401906119fe565b60008061125d836108b1565b9050806001600160a01b0316846001600160a01b031614806112a457506001600160a01b0380821660009081526005602090815260408083209388168352929052205460ff165b80610af65750836001600160a01b03166112bd8461052d565b6001600160a01b031614949350505050565b826001600160a01b03166112e2826108b1565b6001600160a01b0316146113465760405162461bcd60e51b815260206004820152602560248201527f4552433732313a207472616e736665722066726f6d20696e636f72726563742060448201526437bbb732b960d91b60648201526084016105c9565b6001600160a01b0382166113a85760405162461bcd60e51b8152602060048201526024808201527f4552433732313a207472616e7366657220746f20746865207a65726f206164646044820152637265737360e01b60648201526084016105c9565b6113b3600082610be3565b6001600160a01b03831660009081526003602052604081208054600192906113dc908490612040565b90915550506001600160a01b038216600090815260036020526040812080546001929061140a908490611ff5565b909155505060008181526002602052604080822080546001600160a01b0319166001600160a01b0386811691821790925591518493918716917fddf252ad1be2c89b69c2b068fc378daa952ba7f163c4a11628f55a4df523b3ef91a4505050565b816001600160a01b0316836001600160a01b031614156114cd5760405162461bcd60e51b815260206004820152601960248201527f4552433732313a20617070726f766520746f2063616c6c65720000000000000060448201526064016105c9565b6001600160a01b03838116600081815260056020908152604080832094871680845294825291829020805460ff191686151590811790915591519182527f17307eab39ab6107e8899845ad3d59bd9653f200f220920489ca2b5937696c31910160405180910390a3505050565b6115458484846112cf565b61155184848484611788565b6109e75760405162461bcd60e51b81526004016105c990611f55565b606061157882610b84565b600061158f60408051602081019091526000815290565b905060008151116115af57604051806020016040528060008152506115da565b806115b984610c51565b6040516020016115ca929190611cee565b6040516020818303038152906040525b9392505050565b80516a636f6e736f6c652e6c6f67602083016000808483855afa5050505050565b60408051606081018252818152600091829182918291601089901b600889901b17871791603f601284901c811692600c85901c821692600686901c831692861691906121916020830139848151811061166b57634e487b7160e01b600052603260045260246000fd5b602001015160f81c60f81b98506040518060600160405280604081526020016121916040913983815181106116b057634e487b7160e01b600052603260045260246000fd5b602001015160f81c60f81b97506040518060600160405280604081526020016121916040913982815181106116f557634e487b7160e01b600052603260045260246000fd5b602001015160f81c60f81b965060405180606001604052806040815260200161219160409139818151811061173a57634e487b7160e01b600052603260045260246000fd5b602001015160f81c60f81b9550505050505093509350935093565b61175f8383611895565b61176c6000848484611788565b61066a5760405162461bcd60e51b81526004016105c990611f55565b60006001600160a01b0384163b1561188a57604051630a85bd0160e11b81526001600160a01b0385169063150b7a02906117cc903390899088908890600401611f0f565b602060405180830381600087803b1580156117e657600080fd5b505af1925050508015611816575060408051601f3d908101601f1916820190925261181391810190611c8e565b60015b611870573d808015611844576040519150601f19603f3d011682016040523d82523d6000602084013e611849565b606091505b5080516118685760405162461bcd60e51b81526004016105c990611f55565b805181602001fd5b6001600160e01b031916630a85bd0160e11b149050610af6565b506001949350505050565b6001600160a01b0382166118eb5760405162461bcd60e51b815260206004820181905260248201527f4552433732313a206d696e7420746f20746865207a65726f206164647265737360448201526064016105c9565b6000818152600260205260409020546001600160a01b0316156119505760405162461bcd60e51b815260206004820152601c60248201527f4552433732313a20746f6b656e20616c7265616479206d696e7465640000000060448201526064016105c9565b6001600160a01b0382166000908152600360205260408120805460019290611979908490611ff5565b909155505060008181526002602052604080822080546001600160a01b0319166001600160a01b03861690811790915590518392907fddf252ad1be2c89b69c2b068fc378daa952ba7f163c4a11628f55a4df523b3ef908290a45050565b60405180606001604052806003905b60608152602001906001900390816119e65790505090565b828054611a0a90612083565b90600052602060002090601f016020900481019282611a2c5760008555611a72565b82601f10611a4557805160ff1916838001178555611a72565b82800160010185558215611a72579182015b82811115611a72578251825591602001919060010190611a57565b50611a7e929150611a82565b5090565b5b80821115611a7e5760008155600101611a83565b80356001600160a01b0381168114611aae57600080fd5b919050565b600060208284031215611ac4578081fd5b6115da82611a97565b60008060408385031215611adf578081fd5b611ae883611a97565b9150611af660208401611a97565b90509250929050565b600080600060608486031215611b13578081fd5b611b1c84611a97565b9250611b2a60208501611a97565b9150604084013590509250925092565b60008060008060808587031215611b4f578081fd5b611b5885611a97565b9350611b6660208601611a97565b925060408501359150606085013567ffffffffffffffff80821115611b89578283fd5b818701915087601f830112611b9c578283fd5b813581811115611bae57611bae612119565b604051601f8201601f19908116603f01168101908382118183101715611bd657611bd6612119565b816040528281528a6020848701011115611bee578586fd5b82602086016020830137918201602001949094529598949750929550505050565b60008060408385031215611c21578182fd5b611c2a83611a97565b915060208301358015158114611c3e578182fd5b809150509250929050565b60008060408385031215611c5b578182fd5b611c6483611a97565b946020939093013593505050565b600060208284031215611c83578081fd5b81356115da8161212f565b600060208284031215611c9f578081fd5b81516115da8161212f565b600060208284031215611cbb578081fd5b5035919050565b60008151808452611cda816020860160208601612057565b601f01601f19169290920160200192915050565b60008351611d00818460208801612057565b835190830190611d14818360208801612057565b01949350505050565b60008451611d2f818460208901612057565b845190830190611d43818360208901612057565b8451910190611d56818360208801612057565b0195945050505050565b757b20226e616d65223a20224e46545469636b6574202360501b81528251600090611d92816016850160208801612057565b7f222c20226465736372697074696f6e223a202241204e46542d706f7765726564601691840191820152730103a34b1b5b2ba34b7339039bcb9ba32b69116160651b60368201527f22747261697473223a205b7b202274726169745f74797065223a202243686563604a8201527f6b656420496e222c202276616c7565223a20227472756522207d2c207b202274606a8201527f726169745f74797065223a2022507572636861736564222c202276616c756522608a8201526c01d10113a393ab291103eae961609d1b60aa8201527f22696d61676573223a2022646174613a696d6167652f7376672b786d6c3b626160b7820152641cd94d8d0b60da1b60d78201528351611ea88160dc840160208801612057565b611ec060dc828401016222207d60e81b815260030190565b9695505050505050565b7f646174613a6170706c69636174696f6e2f6a736f6e3b6261736536342c000000815260008251611f0281601d850160208701612057565b91909101601d0192915050565b6001600160a01b0385811682528416602082015260408101839052608060608201819052600090611ec090830184611cc2565b6020815260006115da6020830184611cc2565b60208082526032908201527f4552433732313a207472616e7366657220746f206e6f6e20455243373231526560408201527131b2b4bb32b91034b6b83632b6b2b73a32b960711b606082015260800190565b6020808252602e908201527f4552433732313a2063616c6c6572206973206e6f7420746f6b656e206f776e6560408201526d1c881b9bdc88185c1c1c9bdd995960921b606082015260800190565b60008219821115612008576120086120ed565b500190565b60008261201c5761201c612103565b500490565b600081600019048311821515161561203b5761203b6120ed565b500290565b600082821015612052576120526120ed565b500390565b60005b8381101561207257818101518382015260200161205a565b838111156109e75750506000910152565b600181811c9082168061209757607f821691505b602082108114156120b857634e487b7160e01b600052602260045260246000fd5b50919050565b60006000198214156120d2576120d26120ed565b5060010190565b6000826120e8576120e8612103565b500690565b634e487b7160e01b600052601160045260246000fd5b634e487b7160e01b600052601260045260246000fd5b634e487b7160e01b600052604160045260246000fd5b6001600160e01b031981168114610b8157600080fdfe3c7376672076696577426f783d2230203020313030203130302220786d6c6e733d22687474703a2f2f7777772e77332e6f72672f323030302f737667223e3c7465787420793d223530223e4142434445464748494a4b4c4d4e4f505152535455565758595a6162636465666768696a6b6c6d6e6f707172737475767778797a303132333435363738392d5fa2646970667358221220114ad9f7eabc531b481d312c3092d0fbc84e7295ee711f45bde1adddd8fca18464736f6c63430008040033",
  "linkReferences": {},
  "deployedLinkReferences": {}
}